:100000000C945A000C9479000C9479000C947900AB
:100010000C9479000C9479000C9479000C9479007C
:100020000C9479000C9479000C9479000C9479006C
:100030000C9479000C9420010C9479000C947900B4
:100040000C9479000C9479000C9479000C9479004C
:100050000C9479000C9479000C9479000C9479003C
:100060000C9479000C9479000C9479000C9479002C
:100070000C9479000C9479000C9479000C9479001C
:100080000C9479000C9479000C947900A301AA01D6
:10009000B101FF012A021102D501E701F80118029E
:1000A0009802980298026C027A029802460255025F
:1000B0009802910211241FBECFEFD0E4DEBFCDBF66
:1000C00011E0A0E0B1E0E2ECF5E000E00BBF02C01F
:1000D00007900D92A231B107D9F721E0A2E1B1E07A
:1000E00001C01D92AB31B207E1F70E94A5020C944A
:1000F000DF020C940000CF93DF9300D01F92CDB7A6
:10010000DEB789837B836A8389818A3031F48A816F
:100110009B81BC018DE00E947B0080EC90E0FC01A3
:100120008081882F90E080729927892BB1F386EC2B
:1001300090E02981FC01208380E090E00F900F90F7
:100140000F90DF91CF910895CF93DF9300D000D02F
:10015000CDB7DEB769837A838B839C8389819A814B
:10016000AB81BC8180930E0190930F01A09310018D
:10017000B093110180910E0190910F01A091100197
:10018000B09111018093130190931401A093150174
:10019000B093160100000F900F900F900F90DF9119
:1001A000CF910895CF93DF93CDB7DEB781E890E08C
:1001B0002BE0FC01208388E890E02DE730E0FC0193
:1001C000318320838FE690E022E0FC01208384E8E5
:1001D00090E0FC011182108280910E0190910F013C
:1001E000A0911001B091110180931301909314011B
:1001F000A0931501B09316018FE590E02FE530E054
:10020000F90120812068FC0120830000DF91CF915B
:100210000895CF93DF93CDB7DEB781E890E0FC017E
:1002200010820000DF91CF910895CF93DF93CDB777
:10023000DEB781E0809312010000DF91CF91089535
:100240001F920F9200905F000F92112400905B00AC
:100250000F922F933F934F935F936F937F938F935F
:100260009F93AF93BF93EF93FF93CF93DF93CDB75C
:10027000DEB78091130190911401A0911501B09106
:1002800016010197A109B1098093130190931401FC
:10029000A0931501B0931601809113019091140160
:1002A000A0911501B0911601892B8A2B8B2B91F40B
:1002B0000E94150180910E0190910F01A0911001F3
:1002C000B09111018093130190931401A093150133
:1002D000B09316010000DF91CF91FF91EF91BF9194
:1002E000AF919F918F917F916F915F914F913F91CE
:1002F0002F910F9000925B000F9000925F000F9083
:100300001F901895CF93DF93CDB7DEB780E290E0D2
:10031000FC01808180958093170180911901909153
:100320001A01CC01A0E0B0E040E050E029E030E06C
:10033000841B950B2817390708F48CC08A5B9F4FE4
:10034000FC010C94D60281E090E090931A01809316
:10035000190186C082E090E090931A018093190100
:100360007FC01092180180911701813039F486E026
:1003700090E090931A018093190171C08091170148
:10038000823039F483E090E090931A018093190150
:1003900066C080911701833009F061C089E090E068
:1003A00090931A01809319015AC0809117018130EE
:1003B00039F487E090E090931A018093190150C0BE
:1003C00088E090E090931A018093190149C08091D0
:1003D0001701813039F487E090E090931A018093FF
:1003E000190106C088E090E090931A0180931901EA
:1003F00082E090E090931A018093190131C08091BE
:100400001701823039F484E090E090931A018093D0
:10041000190126C085E090E090931A01809319019C
:100420001FC082E090E090931A018093190118C0D8
:1004300080911701833039F489E090E090931A019C
:10044000809319010DC082E090E090931A0180938F
:10045000190106C010921A011092190101C0000082
:100460008091190190911A01CC01A0E0B0E040E028
:1004700050E029E030E0841B950B2817390708F479
:1004800055C0805B9F4FFC010C94D60288E290E03F
:10049000FC018081893008F04DC088E290E0FC01C9
:1004A00020812F5FFC01208345C0809118018F5F60
:1004B0008093180188E290E0FC0180818930E0F5AA
:1004C000809118018A30C0F188E290E0FC0120811F
:1004D0002F5FFC01208330C088E290E0FC01808126
:1004E000882361F188E290E0FC0120812150FC0129
:1004F000208324C0809118018F5F8093180188E2C7
:1005000090E0FC0180818823D9F0809118018A3025
:10051000B9F488E290E0FC0120812150FC012083A5
:100520000FC088E290E0FC0110820BC0000009C0FF
:10053000000007C0000005C0000003C0000001C0AB
:1005400000000000DF91CF910895CF93DF93CDB7E6
:10055000DEB781E290E0FC01108282E290E02FEFB2
:10056000FC01208387E290E02FEFFC01208388E2EA
:1005700090E0FC01108264E670E080E090E00E9470
:10058000A4000E94D20010921A011092190188E270
:1005900090E027E0FC0120830E948201000080910E
:1005A00012018823E1F310921201F6CFEE0FFF1F24
:1005B0000024001C0BBE0790F691E02D0994F894DE
:0205C000FFCF6B
:1005C20000000002000000007B00000000000100AB
:0205D200000027
:00000001FF
