:100000000C9454000C9473000C9473000C947300C3
:100010000C9473000C9473000C9473000C94730094
:100020000C9473000C9473000C9473000C94730084
:100030000C9473000C941A010C9473000C947300CC
:100040000C9473000C9473000C9473000C94730064
:100050000C9473000C9473000C9473000C94730054
:100060000C9473000C9473000C9473000C94730044
:100070000C9473000C9473000C9473000C94730034
:100080000C9473000C9473000C9473009D01A401F4
:10009000AB01BD01CF01E101F3013B021F022402CC
:1000A0002A0230023B023B0211241FBECFEFD0E4F4
:1000B000DEBFCDBF11E0A0E0B1E0E2EFF4E000E090
:1000C0000BBF02C007900D92A231B107D9F721E012
:1000D000A2E1B1E001C01D92AA31B207E1F70E948E
:1000E00040020C9477020C940000CF93DF9300D071
:1000F0001F92CDB7DEB789837B836A8389818A307B
:1001000031F48A819B81BC018DE00E94750080ECF6
:1001100090E0FC018081882F90E080729927892BE4
:10012000B1F386EC90E02981FC01208380E090E02F
:100130000F900F900F90DF91CF910895CF93DF93A1
:1001400000D000D0CDB7DEB769837A838B839C83E0
:1001500089819A81AB81BC8180930E0190930F01BC
:10016000A0931001B093110180910E0190910F01A5
:10017000A0911001B091110180931301909314018B
:10018000A0931501B093160100000F900F900F90EF
:100190000F90DF91CF910895CF93DF93CDB7DEB766
:1001A00081E890E02BE0FC01208388E890E02DE7D7
:1001B00030E0FC01318320838FE690E022E0FC01F7
:1001C000208384E890E0FC011182108280910E016E
:1001D00090910F01A0911001B09111018093130132
:1001E00090931401A0931501B09316018FE590E050
:1001F0002FE530E0F90120812068FC012083000018
:10020000DF91CF910895CF93DF93CDB7DEB781E82B
:1002100090E0FC0110820000DF91CF910895CF9310
:10022000DF93CDB7DEB781E0809312010000DF914C
:10023000CF9108951F920F9200905F000F921124AA
:1002400000905B000F922F933F934F935F936F93B8
:100250007F938F939F93AF93BF93EF93FF93CF932E
:10026000DF93CDB7DEB78091130190911401A09177
:100270001501B09116010197A109B10980931301ED
:1002800090931401A0931501B0931601809113016E
:1002900090911401A0911501B0911601892B8A2B20
:1002A0008B2B91F40E940F0180910E0190910F0110
:1002B000A0911001B091110180931301909314014A
:1002C000A0931501B09316010000DF91CF91FF912B
:1002D000EF91BF91AF919F918F917F916F915F91BE
:1002E0004F913F912F910F9000925B000F900092E1
:1002F0005F000F901F901895CF93DF93CDB7DEB7B7
:1003000080E290E0FC0180818095809317018091CC
:10031000180190911901CC01A0E0B0E040E050E05C
:1003200026E030E0841B950B2817390708F46DC0D0
:100330008A5B9F4FFC010C946E0281E090E09093E9
:1003400019018093180166C082E090E09093190132
:10035000809318015FC080911701882339F085E0F0
:1003600090E0909319018093180154C083E090E0CD
:1003700090931901809318014DC080911701882333
:1003800039F085E090E0909319018093180142C004
:1003900084E090E090931901809318013BC0809114
:1003A0001701882339F085E090E09093190180933C
:1003B000180130C082E090E09093190180931801F9
:1003C00029C080911701882339F085E090E090934F
:1003D0001901809318011EC086E090E090931901E6
:1003E0008093180117C080911701882339F081E0AC
:1003F00090E090931901809318010CC086E090E082
:10040000909319018093180105C010921901109260
:10041000180100008091180190911901CC01A0E011
:10042000B0E040E050E026E030E0841B950B281758
:100430003907E0F0835B9F4FFC010C946E0285E26C
:1004400090E0FC01108218C085E290E021E0FC0100
:10045000208312C085E290E022E0FC0120830CC0E2
:1004600085E290E024E0FC01208306C085E290E074
:10047000FC01108201C000000000DF91CF910895BF
:10048000CF93DF93CDB7DEB781E290E0FC0110821D
:1004900082E290E02FEFFC01208384E290E02FEFD6
:1004A000FC01208385E290E0FC01108264E670E0AC
:1004B00080E090E00E949E000E94CC0081E090E0ED
:1004C00090931901809318010E947C010000809193
:1004D00012018823E1F310921201F6CFEE0FFF1FF5
:1004E0000024001C0BBE0790F691E02D0994F894AF
:0204F000FFCF3C
:1004F2000000000200000000750000000000010082
:020502000000F7
:00000001FF
